:020000040800F2
:10000000A807002091010008990100089B01000841
:100010009D0100089F010008A101000800000000E8
:10002000000000000000000000000000A301000824
:10003000A501000800000000A7010008A9010008B0
:10004000AB010008AB010008AB010008AB010008E0
:10005000AB010008AB010008AB010008AB010008D0
:10006000AB010008AB010008AB010008AB010008C0
:10007000AB010008AB010008AB010008AB010008B0
:10008000AB010008AB010008AB010008AB010008A0
:10009000AB010008AB010008AB0100083505000802
:1000A000AB010008AB010008AB010008AB01000880
:1000B000AB01000895110008AB010008AB01000876
:1000C000AB010008AB010008AB010008AB01000860
:1000D000AB01000829130008AB010008B1130008A8
:1000E000AB010008AB010008AB01000800F002F80A
:1000F00000F03FF80AA090E8000C82448344AAF183
:100100000107DA4501D100F034F8AFF2090EBAE880
:100110000F0013F0010F18BFFB1A43F0010318473B
:10012000D0160000F0160000103A24BF78C878C13D
:10013000FAD8520724BF30C830C144BF04680C60ED
:10014000704700000023002400250026103A28BF35
:1001500078C1FBD8520728BF30C148BF0B60704739
:10016000642900F07780002070471FB51FBD10B5CF
:1001700010BD00F037F91146FFF7F7FF01F072FAF2
:1001800000F055F903B4FFF7F2FF03BC01F011FAD8
:100190000948804709480047FEE7FEE7FEE7FEE71B
:1001A000FEE7FEE7FEE7FEE7FEE7FEE70448054957
:1001B000054A064B7047000035110008ED000008A5
:1001C000A8010020A8070020A8030020A803002001
:1001D000704700000FB4044910B503AA029800F05C
:1001E000D3F810BC5DF814FB3C0000202DE9F04171
:1001F0000E460446002020622046E168884730B35E
:10020000252805D0D4E901219047206A401CF2E757
:10021000E168204600278847050018D0A5F1410075
:10022000192802D820354FF4006732462946204667
:100230002760FFF795FF40B1012804D0F61D26F096
:1002400007060836D8E7361DD6E72846DAE7206ADB
:10025000BDE8F0812DE9F0410646002410687529BB
:10026000314616A510D0AFF30080002802DA4042D4
:1002700013A507E031688A0701D512A502E04907F6
:1002800004D511A5012401E0AFF3008000210A226A
:1002900006F1240709E0B0FBF2FCB0FBF2F302FB2D
:1002A0001C00303078541846491C0028F3D12346EE
:1002B0002A463046BDE8F04100F00CB800000000CE
:1002C0002D0000002B000000200000007047704748
:1002D000704770472DE9F0470D469946924604460F
:1002E00000F124080168880604D5E06921F01001B6
:1002F000216000E00120A84201DD471B00E000274B
:10030000A1697A1902EB0900081AA0612078C006D9
:1003100002D42046AFF30080002608E0D4E9012192
:100320001AF806009047206A401C761C20624E4551
:10033000F4DB2078C0060AD52046AFF3008006E043
:10034000D4E9012130209047206A401C2062381EE9
:10035000A7F10107F4DC07E0D4E9012118F8050052
:100360009047206A401C2062281EA5F10105F3DC9D
:100370002046AFF300802078000602D50220BDE8B9
:10038000F0870120FBE70000074B70B50D467B446A
:1003900000F011F80446284600F020F810B14FF0A4
:1003A000FF3070BD204670BDB712000001694A1CC5
:1003B00002610878704700B58FB0CDE901310021A6
:1003C000059105497944CDE9031011466846FFF7C8
:1003D0000DFF0FB000BD0000E5FFFFFF007B00F048
:1003E00080007047754600F02BF8AE460500694660
:1003F000534620F00700854618B020B5FFF7D6FE1B
:10040000BDE820404FF000064FF000074FF0000815
:100410004FF0000B21F00701AC46ACE8C009ACE896
:10042000C009ACE8C009ACE8C0098D46704710B5FA
:100430000446AFF300802046BDE81040FFF7A2BE9F
:10044000004870474801002008B50121082000F04D
:1004500047FC4FF48050ADF8000010208DF80300E9
:1004600003208DF802006946044800F061FA4FF459
:100470008051024800F0E7FA08BD0000000C01407E
:1004800010B586B004460121880400F019FC012152
:10049000082000F025FC4FF48060ADF80000022039
:1004A0008DF8020018208DF8030069461F4800F0FF
:1004B0003FFA04208DF803004002ADF800006946C1
:1004C0001A4800F035FA01940020ADF80800ADF8A4
:1004D0000A00ADF80C00ADF810000C20ADF80E00CD
:1004E00001A9134800F0F0FF012240F22551104805
:1004F00000F0C4FF01210E4800F07DFF40210C48B0
:1005000000F070FF4FF4A06000F0C0FB27208DF8D2
:10051000140000208DF815008DF8160001208DF8CC
:10052000170005A800F07AFB06B010BD000C0140D2
:100530000048004010B5642001F060F8402000F051
:1005400079F900283ED06048007808B9012000E021
:1005500000205D4908700846007890B9002141F2FA
:10056000130000F037FC59A0FFF734FE0020624969
:100570000860624908706249C1F8800100F09EFC81
:100580001DE0012141F2130000F024FC01205A4932
:10059000086001214FF4815000F05AFA594908804F
:1005A0000846008844F2506191FBF0F084B2214685
:1005B00040F2CF7000F00CFE53A0FFF70BFE40207E
:1005C00000F032F9802000F035F9F0B1544800789D
:1005D00008B9012000E00020514908700846007861
:1005E00040B950A0FFF7F6FD002141F2100000F0E5
:1005F000F1FB07E04FA0FFF7EDFD012141F21000F4
:1006000000F0E8FB802000F00FF94FF4807000F05C
:1006100011F9002832D04B48007808B9012000E0D9
:100620000020484908700846007840B9002141F28E
:10063000110000F0CFFB44A0FFF7CCFD1AE0012130
:100640004FF4815000F004FA2E49088008460088D3
:1006500044F2506191FBF0F084B2214640F2CF7039
:1006600000F0B6FD012141F2110000F0B3FB3BA008
:10067000FFF7B0FD4FF4807000F0D6F84FF4007033
:1006800000F0D8F8F8B13A48007808B9012000E045
:100690000020374908700846007840B9002141F22F
:1006A000120000F097FB33A0FFF794FD07E0012153
:1006B00041F2120000F08EFB32A0FFF78BFD4FF4E9
:1006C000007000F0B1F810BD00000020CFB5CDB330
:1006D000CDA3D6B9D4CBD0D0202E2E2E2E200D0ACD
:1006E000B7B5BBD8BFAACABCBDE7C3E6202E2E2E25
:1006F0002E200D0A00000000B40122420300002059
:100700000000214206000020CFB5CDB3BFAACABC6D
:10071000D4CBD0D0202E2E2E2E200D0A000000008B
:1007200001000020C6C1C4BBB9D8B1D5202E2E2EE1
:10073000200D0A00C6C1C4BBB4F2BFAA202E2E2EC3
:10074000200D0A0002000020B7E4C3F9C6F7B9D8AB
:10075000B1D5202E2E2E200D0A000000B7E4C3F9DB
:10076000C6F7B4F2BFAA202E2E2E0D0A00000000FC
:1007700004000020B5E7BBFAB9D8B1D5202E2E2E43
:10078000200D0A00B5E7BBFAB4F2BFAA202E2E2E28
:10079000200D0A000EB54FF4A06000F077FA00F0CB
:1007A000EFF90121084600F09BFA0621012000F034
:1007B0009FF84020019000208DF8080008208DF857
:1007C000090001208DF80A0001A800F047F809216E
:1007D000012000F08DF84FF40070019001A800F0A6
:1007E0003DF80721012000F083F88020019001A846
:1007F00000F034F80821012000F07AF84FF48070FE
:10080000019001A800F02AF817208DF800000220BE
:100810008DF8010001208DF802008DF80300684674
:1008200000F0FCF90EBD00000149086070470000AF
:1008300014040140014600200022074B1B6803EA14
:100840000102054B14331B680B4013B10AB10120A0
:1008500000E000207047000000040140002123490F
:100860008279002A3AD00A46126803689A430B46F6
:100870001A600A1D126803689A430B1D1A600279F8
:1008800011440A6803681A430A60184A0832126859
:1008900003689A43154B08331A601A1D12680368DF
:1008A0009A43124B0C331A604279102A0ED11A1F48
:1008B000126803681A430D4B08331A601A1D126838
:1008C00003681A43094B0C331A600DE0074942795B
:1008D00011440A6803681A430A6005E0027911446A
:1008E0000A6803689A430A607047000000040140E8
:1008F00030B500228B071C0F0F2303FA04F20B4BB9
:100900008C1053F824309343084C8D1044F8253054
:1009100023468C1053F824308C07240F00FA04F47B
:100920002343024C8D1044F8253030BD08000140AF
:100930002DE9F04102460025002600200023002476
:10094000002791F803C00CF00F0591F803C00CF0DC
:10095000100CBCF1000F03D091F802C04CEA050561
:1009600091F800C0BCF1000F31D0146800202BE0DA
:100970004FF0010C0CFA00F3B1F800C00CEA0306CA
:100980009E4220D183004FF00F0C0CFA03F7BC43BA
:1009900005FA03FC4CEA040491F803C0BCF1280FEB
:1009A00006D14FF0010C0CFA00FCC2F814C00AE0AA
:1009B00091F803C0BCF1480F05D14FF0010C0CFABF
:1009C00000FCC2F810C0401C0828D1D31460B1F854
:1009D00000C0BCF1FF0F34DD546800202EE000F1B0
:1009E000080C4FF0010808FA0CF3B1F800C00CEA4B
:1009F00003069E4221D183004FF00F0C0CFA03F73F
:100A0000BC4305FA03FC4CEA040491F803C0BCF1B2
:100A1000280F05D100F1080C08FA0CF8C2F8148070
:100A200091F803C0BCF1480F07D100F1080C4FF05A
:100A3000010808FA0CF8C2F81080401C0828CED330
:100A40005460BDE8F081416170470161704700006A
:100A50002DE9F04106460F46002030490870304924
:100A6000087030122F4908714E710846877100795D
:100A70002D4908712B48407948712A48807988713E
:100A8000002405E02749085D00F00AF9601CC4B2A3
:100A9000072CF7DB12E021480078401C1F49087042
:100AA0000A2000F0ABFD1D480078142806DD002068
:100AB0001A4908701DA0FFF78DFB03E01848007865
:100AC0000928E8DB00BF062217491E4800F02EFE69
:100AD0008046002406E01B48015D1BA0FFF77AFB5F
:100AE000601CC4B2092CF6DB414618A0FFF772FB6C
:100AF0001448007A1349C97940EA012529461CA007
:100B0000FFF768FB40F6B830854201DC642D03DA5C
:100B10004FF47A70BDE8F0812846FBE70900002019
:100B2000080000201C000020290000206765744494
:100B30006174612074696D6573206F7574200D0A8E
:100B4000000000006C000020256400000D0A204712
:100B500065744461746120737472636D7020766192
:100B60006C7565206973203C25643E200D0A0000E9
:100B7000627566666572203A203C25643E0D0A0067
:100B800008B50121082000F0ABF84FF47070ADF803
:100B9000000048208DF8030069460448FFF7C8FEAE
:100BA0004FF470710148FFF750FF08BD000C014081
:100BB00008B50121102000F093F84FF40050ADF873
:100BC000000010208DF8030003208DF80200694614
:100BD0000448FFF7ADFE4FF400510248FFF733FF22
:100BE00008BD00000010014008B50121042000F0FC
:100BF00077F80120ADF8000010208DF803000320E5
:100C00008DF8020069460448FFF792FE0121024870
:100C1000FFF719FF08BD00000008014070B5002172
:100C200000230F22C47804B3154C246804F4E06454
:100C3000C4F5E064210AC1F10403CA40447804FA0F
:100C400003F184781440214309010E4C0678A15524
:100C5000047804F01F050124AC4005786D11AD0047
:100C600005F1E025C5F8004109E0047804F01F050E
:100C70000124AC40044D0678761145F8264070BD3D
:100C80000CED00E000E400E080E100E002490143F7
:100C9000024A1160704700000000FA050CED00E008
:100CA00010B504462146054800F07FFC00BF4021F6
:100CB000024800F0ACFB0028F9D010BD004800400D
:100CC00029B1064AD2690243044BDA6104E0034ABF
:100CD000D2698243014BDA61704700000010024084
:100CE00029B1064A92690243044B9A6104E0034A1F
:100CF00092698243014B9A617047000000100240E4
:100D000030B500210022002400232D4D6D6805F030
:100D10000C0121B1042905D0082923D105E0294D72
:100D2000056022E0274D05601FE0254D6D6805F444
:100D30007012234D6D6805F48034022505EB924254
:100D40001CB9214D554305600BE01D4D6D6805F440
:100D500000351DB11C4D5543056002E0194D55434A
:100D6000056002E0174D056000BF00BF144D6D68BF
:100D700005F0F0010909154D6B5C0568DD40456023
:100D80000F4D6D6805F4E061090A104D6B5C456814
:100D9000DD4085600A4D6D6805F46051C90A0B4D50
:100DA0006B5C4568DD40C560054D6D6805F44041EC
:100DB000890B074D6B5CC568B5FBF3F5056130BD6C
:100DC0000010024000127A0000093D00420000209D
:100DD000520000202DE9F04105460E460020224930
:100DE0000870224908702812214908714D7130128B
:100DF0008871CE71002405E01D49085DFFF750FFA2
:100E0000601CC4B2082CF7DB12E017480078401CC5
:100E1000154908700A2000F0F1FB134800781428E7
:100E200006DD00201049087012A0FFF7D3F903E097
:100E30000E4800780628E8DB00BF06221349144854
:100E400000F074FC0746002406E01148015D11A083
:100E5000FFF7C0F9601CC4B2062CF6DB39460EA0C1
:100E6000FFF7B8F9BDE8F081090000200800002074
:100E700014000020536574446174612074696D65C9
:100E800073206F7574200D0A0000000023000020FD
:100E90006C000020256400000D0A20536574446135
:100EA000746120737472636D702076616C75652057
:100EB0006973203C25643E200D0A000070B505468C
:100EC00000201F4908701F4908701F484572002400
:100ED00005E01D49085DFFF7E3FE601CC4B20A2C63
:100EE000F7DB12E016480078401C154908700A200C
:100EF00000F084FB12480078142806DD0020104919
:100F0000087012A0FFF766F903E00E480078062883
:100F1000E8DB00BF06221349134800F007FC064631
:100F2000002406E01048015D10A0FFF753F9601C93
:100F3000C4B2062CF6DB31460DA0FFF74BF970BDAD
:100F400009000020080000200A00002053657446B4
:100F50006F6E742074696D6573206F7574200D0A4F
:100F600000000000230000206C0000202564000029
:100F70000D0A20536574466F6E7420737472636D2E
:100F8000702076616C7565206973203C25643E2075
:100F90000D0A000010B500F001F810BD0CB50020DE
:100FA000019000903348006840F480303149086077
:100FB00000BF3048006800F4003000900198401CE9
:100FC0000190009818B90198B0F5A06FF1D12948A7
:100FD000006800F4003010B10120009001E0002012
:100FE00000900098012843D12348006840F0100089
:100FF000214908600846006820F0030008600846A0
:10100000006840F0020008601A48406819494860CA
:101010000846406848600846406840F48060486080
:101020000846406820F47C1048600846406840F458
:10103000E81048600846006840F08070086000BF13
:101040000C48006800F000700028F9D0094840689A
:1010500020F00300074948600846406840F002005D
:10106000486000BF0348406800F00C000828F9D130
:101070000CBD0000001002400020024010B51E48C8
:101080000078012803D12920FFF718FF02E0002093
:10109000FFF714FF19480078012801D1184908709A
:1010A00018480078012801D117490860C82000F0CD
:1010B000A5FA002012490870134908604FF44870DF
:1010C00000F09CFA0D480078012801D10C49087005
:1010D0000C480078012801D10B490860C82000F0B5
:1010E0008DFA002006490870074908604FF44870DF
:1010F00000F084FA10BD0000010000200200002072
:10110000030000200400002080012142042808D1AF
:101110004FF0E021096941F004014FF0E022116134
:1011200007E04FF0E021096921F004014FF0E022CF
:101130001161704710B51348006840F00100114973
:10114000086008464068104908400E494860084653
:1011500000680E4908400B4908600846006820F402
:10116000802008600846406820F4FE0048604FF484
:101170001F008860FFF70EFF4FF000600449086011
:1011800010BD0000001002400000FFF8FFFFF6FE57
:1011900008ED00E010B501210A4800F058F878B1D8
:1011A00009480078012807D10848006808B90120DB
:1011B00000E00020054908600121024800F038F8ED
:1011C00010BD00000004004003000020B081214257
:1011D0007FB505460C4601210220FFF771FDADF8F1
:1011E0000850ADF804400020ADF80A00ADF8060044
:1011F00001A90E4800F046F8012211460B4800F004
:1012000037F81D208DF8000000208DF80100032024
:101210008DF8020001208DF803006846FFF7FEFC00
:101220000121024800F007F87FBD000000040040E3
:10123000CA430282704721B1028842F00102028053
:1012400004E002884FF6FE731A400280704730B502
:101250000246002000230024158A05EA010395892F
:1012600005EA010413B10CB1012000E0002030BDFB
:101270001AB183890B43838102E083898B43838185
:1012800070470000002202881D4B98420ED01D4B73
:1012900098420BD0B0F1804F08D01B4B984205D03C
:1012A0001A4B984202D01A4B984204D14FF68F73D2
:1012B0001A404B881A43174B984207D0164B984256
:1012C00004D04FF6FF431A40CB881A4302808B8824
:1012D00083850B8803850A4B98420BD0094B9842B3
:1012E00008D00E4B984205D00D4B984202D00D4BC2
:1012F000984201D10B7A0386012383827047000054
:10130000002C01400034014000040040000800406F
:10131000000C00400010004000140040004001405C
:10132000004401400048014010B540F225511D48DD
:1013300000F07AF810B31B4800F032F9C4B21A4832
:10134000008800F40040C8B91748008800F48040C5
:1013500060B10A2C03D000201349088020E0124815
:10136000008840F400401049088019E00D2C06D197
:101370000D48008840F480400B49088010E00A487E
:101380000088C0F30D0009490C5407480088401C30
:101390000549088008460088C72801DD002008802C
:1013A00010BD0000003801404000002080000020F7
:1013B00010B540F22551084800F036F858B10648FB
:1013C00000F0EEF8C1B2054802780078401C034BEB
:1013D00018700348815410BD0048004008000020E8
:1013E0006C00002001F40072B2F5007F00D100BF54
:1013F000CA430280704721B1828942F4005282813F
:1014000004E082894DF6FF731A40828170470246DC
:101410000020B1F5007F00D100BF13880B400BB155
:10142000012000E00020704770B502460024002330
:101430000025002040F66A16B14200D100BFC1F37A
:10144000421501F01F03012606FA03F3012D02D114
:101450009689334006E0022D02D1168A334001E01E
:10146000968A33400C12012606FA04F4168834409A
:1014700013B10CB1012000E0002070BDF0B50346AF
:10148000002400260025002040F66A17B94200D14A
:1014900000BF1846C1F3421401F01F06012707FAE6
:1014A00006F5012C01D10C3004E0022C01D11030E2
:1014B00000E014301AB107682F43076002E00768A4
:1014C000AF430760F0BD00002DE9F04786B0054648
:1014D0000E460024A24600BFA1460027B08900B1F5
:1014E00000BF2F462C8A4CF6FF700440F08804435E
:1014F0002C82AC894EF6F3100440B0883189084341
:10150000718908430443AC81AC8A4FF6FF40044024
:10151000B0890443AC8201A8FFF7F2FB1F48874261
:1015200002D1DDF810A001E0DDF80CA0A88900F4DC
:10153000004040B10AEBCA0000EB0A1031684900D4
:10154000B0FBF1F807E00AEBCA0000EB0A103168C3
:101550008900B0FBF1F86420B8FBF0F00401200929
:10156000642101FB1089A88900F4004040B13220B9
:1015700000EBC900B0FBF1F000F00700044308E005
:10158000322000EB09106421B0FBF1F000F00F00F5
:1015900004432C8106B0BDE8F0870000003801400C
:1015A00001468888C0F308007047C1F308028280B2
:1015B0007047014600BF704710B56FF00400FFF799
:1015C000A5FD0A4800680A49B0FBF1F00949087016
:1015D0000846007800EB4001C1EBC0104FF6FF71E8
:1015E00001EAC0000449088010BD00005800002036
:1015F00000127A0036000020380000200146114A0F
:1016000012884A434FF0E0235A6100229A611A4639
:10161000126942F001021A6100BF4FF0E022106926
:1016200000F001021AB100F48032002AF5D04FF028
:10163000E022126922F001024FF0E0231A61002239
:101640009A6170473800002000BF054A128802F0F6
:101650004002002AF9D0C2B2014B1B1D1A8070470C
:1016600000380140FFF7A8FF4FF4E13000F070F8B8
:101670004FF4E130FEF704FFFFF79AFAFFF7B4FAF0
:10168000FEF7E2FE0020FFF719FC002141F21300F3
:10169000FFF7A0FB1F48017841F21000FFF79AFB0B
:1016A0001D48017841F21100FFF794FB1B480178B7
:1016B00041F21200FFF78EFBFFF76CF84FF47A70DF
:1016C000FFF79CFF01214FF48150FFF7C1F9144946
:1016D00008800846008844F2506191FBF0F084B223
:1016E000214640F2CF70FFF773FD11E00D480078FE
:1016F00010B1FFF7C3FC0BE00B48006808B90120EC
:1017000000E00020084908604FF49670FFF776FF6C
:10171000ECE700000100002002000020040000208F
:101720000600002000000020B401224230B503462C
:101730000C46002107E0585C655CA84201D00020FF
:1017400030BD481CC1B29142F5DB0120F8E7000032
:1017500010B586B00446012144F20400FFF7C0FA38
:101760004FF40070ADF8140003208DF81600182017
:101770008DF8170005A91C48FFF7DAF84FF48060D0
:10178000ADF8140004208DF8170005A91648FFF7DE
:10179000CFF825208DF8000003208DF801008DF88A
:1017A000020001208DF803006846FFF737FA019424
:1017B0000020ADF80800ADF80A00ADF80C00ADF857
:1017C00010000C20ADF80E0001A90848FFF77CFEC0
:1017D000012240F225510548FFF750FE0121034840
:1017E000FFF709FE06B010BD0008014000380140B7
:1017F00010180008000000206C00000028010008FC
:101800007C1800086C0000203C0700004401000820
:10181000000101000100000000005AA507820084B9
:101820005A0100005AA50582000000005AA5048351
:101830000000005AA503824F4B5AA5068300000002
:101840000000000000000000000000000000000098
:101850000000000000000102030401020304060767
:10186000080902040608000000A24A040000000063
:0C18700000000000010203040607080944
:04000005080000ED02
:00000001FF
